:1000000000EF3CF000F0FFFF04EF20F008EF00F0FD
:06001000000101EF03F006
:040018000CEF20F0D9
:100600000000FFFF176A000E166E196A000E186EC2
:100610000F0EC16E929A898A1BEC05F026EC05F04C
:1006200016EF04F0FFFFF4EC04F00009D8B41BEF60
:1006300003F01EEF03F0FFFF34EF03F0FFFF164A55
:10064000172A184A192A19500AE17D0E185CD8A0F9
:100650002CEF03F02FEF03F0FFFF34EF03F0FFFF69
:10066000196A000E186E897AFFFF9EBA3AEF03F0FE
:100670003DEF03F0FFFF40EF03F0FFFF16EF04F044
:10068000FFFFABA246EF03F049EF03F0FFFF4CEF93
:1006900003F0FFFFAB98AB88FFFFAECF1AF0550E0B
:1006A0001A18D8B456EF03F059EF03F0FFFF5CEFD0
:1006B00003F0FFFF16EF04F0FFFF898A550E0BECE5
:1006C00005F0FFFFDAEC04F0096E09501D6E1E6A9A
:1006D0001F6A206ADAEC04F0096E09C00AF00B6A9E
:1006E0000C6A0D6A0CC00DF00BC00CF00AC00BF0C8
:1006F0000A6A0A501D120B501E120C501F120D5088
:100700002012DAEC04F0096E09C00AF00B6A0C6AD8
:100710000D6A0BC00DF00AC00CF00B6A0A6A0A5091
:100720001D120B501E120C501F120D502012DAEC2D
:1007300004F01B6E1B50D8A4A0EF03F0A3EF03F04E
:10074000FFFFA9EF03F0FFFFBDEC04F0FFFFA6EFF2
:1007500003F0FFFF1C6AB6EF03F0FFFF1C500E0F03
:10076000D96EDA6ADAEC04F0DF6E1C2AFFFF1B5048
:100770001C5CD8B0BEEF03F0C1EF03F0FFFFCBEF7E
:1007800003F0FFFF070E1C64C8EF03F0CBEF03F08C
:10079000FFFFADEF03F0FFFF1DC001F01EC002F030
:1007A0001FC003F020C004F06BEC04F00009D8B4C3
:1007B000DCEF03F0DFEF03F0FFFF10EF04F0FFFFCB
:1007C0003F0E1D14096E000E1E140A6E000E1F143B
:1007D0000B6E000E20140C6E09500A100B100C103A
:1007E000D8A4F5EF03F0F8EF03F0FFFF03EF04F0F8
:1007F000FFFF1DC001F01EC002F01FC003F020C0AB
:1008000004F0A0EC04F0FFFF1DC001F01EC002F0D8
:100810001FC003F020C004F00E0E056E2BEC04F098
:10082000FFFF010E0BEC05F061EF03F0FFFFB80EC8
:10083000165C0B0E1758D8A020EF04F023EF04F03D
:10084000FFFF12EF03F0FFFFBDEC04F0FFFF26EF08
:1008500004F006EF00F0FFFF03C0F8FF02C0F7FF4F
:1008600001C0F6FF066AFFFF05500624D96EDA6A5A
:10087000DF50F56E070E066040EF04F043EF04F022
:10088000FFFF47EF04F0FFFF0D0049EF04F0FFFF0B
:100890000C00FFFF062A070E066451EF04F054EF28
:1008A00004F0FFFF33EF04F0FFFF840EA66EF29E0C
:1008B000550EA76EAA0EA76EA682FFFFA6B263EF23
:1008C00004F066EF04F0FFFF5DEF04F0FFFFA69475
:1008D000F28E1200FFFFFFFF070E0124056E000ECF
:1008E0000220066E000E0320076E000E0420086E24
:1008F0000450031007E1400E025CD8B082EF04F010
:1009000085EF04F0FFFF8AEF04F0FFFFFFFF000E0A
:100910009DEF04F0FFFF085007100AE1780E065C17
:10092000D8A095EF04F098EF04F0FFFF9BEF04F0E0
:10093000FFFF86EF04F0FFFF010EFFFF1200FFFF35
:10094000FFFF03C0F8FF02C0F7FF01C0F6FF940EDF
:10095000A66EF29E550EA76EAA0EA76EA682FFFF88
:10096000A6B2B5EF04F0B8EF04F0FFFFAFEF04F06C
:10097000FFFFA694F28E1200FFFFFFFFFFFFACA265
:10098000C4EF04F0C7EF04F0FFFFBEEF04F0FFFF79
:10099000AB6AAC6AAF6A9D6AA06A9E6AA16AB16AD4
:1009A000D56AF26A948C948E899A928A00EF20F02C
:1009B0001200FFFFFFFFFFFF9EAAE1EF04F0E4EF4C
:1009C00004F0FFFFDBEF04F0FFFFABA2EAEF04F05F
:1009D000EDEF04F0FFFFF0EF04F0FFFFAB98AB8802
:1009E000FFFFAE501200FFFFFFFFA1B2FAEF04F0CD
:1009F000FDEF04F0FFFF01EF05F0FFFF000E08EF31
:100A000005F0FFFFA192F00EB36E600EB26E010E04
:100A1000FFFF1200FFFFFFFF016EFFFFACA213EF0D
:100A200005F016EF05F0FFFF0DEF05F0FFFF01C029
:100A3000ADFF1200FFFFFFFF949C948E110EAF6E6E
:100A4000240EAC6E900EAB6E1200FFFFFFFFB16A7A
:100A5000F00EB36E600EB26EA192810EB16E1200F6
:020A6000FFFF96
:0478000001EF03F0A1
:020000040030CA
:04000000FF220E0EBF
:0800060085FF0FC00EA00F40A2
:00000001FF
