:1000000000EF3CF081EF04F004EF20F0016EACA2B1
:0C001000FED701C0ADFF12000CEF20F085
:1006000000004F6A000E4E6E516A000E506EF26A84
:100610009D6AA06AA36A9E6AA16AA46AD56AB16A41
:10062000D2980F0E5A6EA00E596E5906D8A05A06CF
:100630005928FBE15A28D8A4F8D70F01386B396B39
:100640003A6B796A786A929A898A56EC04F06FEC70
:1006500004F09FD064EC04F00009D8B40ED04E4AE8
:100660004F2A504A512A515004E17D0E505CD8A0C7
:1006700004D0516A000E506E897A9EAA8AD0ABA22D
:1006800002D0AB98AB88AECF52F0550E5218D8A41A
:1006900080D0898A550E06EC00F079EC04F0096EE2
:1006A0000950556E566A576A586A79EC04F0096E1B
:1006B00009C00AF00B6A0C6A0D6A0CC00DF00BC081
:1006C0000CF00AC00BF00A6A0A5055120B50561271
:1006D0000C5057120D50581279EC04F0096E09C0F5
:1006E0000AF00B6A0C6A0D6A0BC00DF00AC00CF020
:1006F0000B6A0A6A0A5055120B5056120C505712C8
:100700000D50581279EC04F0536E5350D8A403D016
:1007100026EC04F0FFD7546A08D054500E0FD96E5F
:10072000DA6A79EC04F0DF6E542A5350545CD8B086
:1007300003D03F0E5464F1D755C001F056C002F00B
:1007400057C003F058C004F0D2EC03F00009D8B44D
:100750001CD055C009F03F0E0916D8A40AD055C0C8
:1007600001F056C002F057C003F058C004F03FEC4F
:1007700004F055C001F056C002F057C003F058C055
:1007800004F00E0E056EFEEC03F0010E06EC00F018
:1007900084D7B80E4E5C0B0E4F58D8A05BD726EC12
:1007A00004F0FFD73F0E0124056E000E0220066EF6
:1007B000000E0320076E000E0420086E0150021088
:1007C00003100410D8A402D0010E1200045003102C
:1007D00006E1400E025CD8B002D0000E12000850B4
:1007E0000710FBE1780E065CD8B0F7D70850071069
:1007F000F4E1780E065CD8B0F0D7E6D703C0F8FF76
:1008000002C0F7FF01C0F6FF066A05500624D96E44
:10081000DA6ADF50F56E3F0E066002D00D0001D09F
:100820000C00062A3F0E0664F0D7A68EA69CA6985A
:10083000A684F29E550EA76EAA0EA76EA682000091
:100840000000A6B2FED7A694F28E1200ACA2FED78C
:10085000AB6AAC6AB86AB06AAF6A9D6AA06AA36AFA
:100860009E6AA16AA46AB16AD56AD76AD66AF26A30
:10087000948C948E899A928A00EF20F0120003C023
:10088000F8FF02C0F7FF01C0F6FFA68EA69CA6885F
:10089000A684F29E550EA76EAA0EA76EA682000031
:1008A0000000A6B2FED7A694F28E1200949C948EFD
:1008B0003A9D3A9F240EAC6E900EAB6E080EB86E49
:1008C000B06A220EAF6E1200F2B402D0000E120017
:1008D000F294F00ED76E600ED66E010E1200D56A3D
:1008E000F00ED76E600ED66EF294F29A880ED56E28
:1008F00012009EAAFED7ABA202D0AB98AB88AE5036
:080900001200000101EF03F0F9
:0478000001EF03F0A1
:020000040030CA
:0E000000FF22193CFFB585FF0FC00EA00F4078
:00000001FF
