:1000000080EF3FF006EF00F004EF20F0000101EF79
:0200100004F0FA
:040018000CEF20F0D9
:1008000000002F6A000E2E6E316A000E306E0F0E41
:10081000C16E070EB46E929A898ABEEC05F0D5ECD3
:1008200005F0F7EF04F0ADEC05F00009D8B41BEFCC
:1008300004F01DEF04F030EF04F02E4A2F2A304A66
:10084000312A315009E17D0E305CD8A02AEF04F046
:100850002CEF04F030EF04F0316A000E306E897A2C
:100860009EBA35EF04F037EF04F039EF04F0F7EFFC
:1008700004F0ABA23EEF04F040EF04F042EF04F0CE
:10088000AB98AB88AECF32F0550E3218D8B44BEFE0
:1008900004F04DEF04F04FEF04F0F7EF04F0898A15
:1008A000550ECAEC05F09BEC05F0096E0950356E4B
:1008B000366A376A386A9BEC05F0096E09C00AF09F
:1008C0000B6A0C6A0D6A0CC00DF00BC00CF00AC06C
:1008D0000BF00A6A0A5035120B5036120C503712C0
:1008E0000D5038129BEC05F0096E09C00AF00B6A36
:1008F0000C6A0D6A0BC00DF00AC00CF00B6A0A6A94
:100900000A5035120B5036120C5037120D50381257
:100910009BEC05F0336E3350D8A491EF04F093EFC5
:1009200004F097EF04F067EC05F095EF04F0346AFB
:10093000A2EF04F034500E0FD96EDA6A9BEC05F08A
:10094000DF6E342A3350345CD8B0A9EF04F0ABEF3B
:1009500004F0B3EF04F01F0E3464B1EF04F0B3EF12
:1009600004F09AEF04F035C001F036C002F037C051
:1009700003F038C004F03CEC05F00009D8B4C3EF34
:1009800004F0C5EF04F0F2EF04F03F0E3514096EE9
:10099000000E36140A6E000E37140B6E000E38145B
:1009A0000C6E09500A100B100C10D8A4DAEF04F0EA
:1009B000DCEF04F0E6EF04F035C001F036C002F0E1
:1009C00037C003F038C004F083EC05F035C001F007
:1009D00036C002F037C003F038C004F00E0E056ECA
:1009E00008EC05F0010ECAEC05F053EF04F0B80E68
:1009F0002E5C0B0E2F58D8A000EF05F002EF05F08B
:100A000013EF04F067EC05F004EF05F002EF00F0DF
:100A100003C0F8FF02C0F7FF01C0F6FF066A0550E9
:100A20000624D96EDA6ADF50F56E1F0E06601BEFE2
:100A300005F01DEF05F020EF05F00D0021EF05F0AA
:100A40000C00062A1F0E066428EF05F02AEF05F0B9
:100A50000FEF05F0840EA66EF29E550EA76EAA0E3D
:100A6000A76EA682A6B237EF05F039EF05F032EF98
:100A700005F0A694F28E12001F0E0124056E000EE2
:100A80000220066E000E0320076E000E0420086E82
:100A90000450031007E1400E025CD8B052EF05F09D
:100AA00054EF05F057EF05F0000E66EF05F0085023
:100AB000071009E17F0E065CD8A061EF05F063EF37
:100AC00005F065EF05F054EF05F0010E1200ACA241
:100AD0006CEF05F06EEF05F067EF05F0AB6AAC6AFE
:100AE000B86AB06AAF6A9D6AA06A9E6AA16AB16A72
:100AF000D56AD76AD66AF26A948C948E899A928A59
:100B000000EF20F0120003C0F8FF02C0F7FF01C0A1
:100B1000F6FF940EA66EF29E550EA76EAA0EA76E55
:100B2000A682A6B296EF05F098EF05F091EF05F0DA
:100B3000A694F28E12009EAAA0EF05F0A2EF05F097
:100B40009BEF05F0ABA2A7EF05F0A9EF05F0ABEF27
:100B500005F0AB98AB88AE501200A1B2B2EF05F031
:100B6000B4EF05F0B7EF05F0000EBDEF05F0A19270
:100B7000F00EB36E600EB26E010E1200949C948E55
:100B8000240EAC6E900EAB6E080EB86EB06A210EDD
:100B9000AF6E1200016EACA2D0EF05F0D2EF05F0FF
:100BA000CBEF05F001C0ADFF1200B16AF00EB36EDD
:0C0BB000600EB26EA192810EB16E1200B8
:047F000001EF04F099
:020000040030CA
:0E000000000C161EFF8185FF0FC00EA00F40E2
:00000001FF
