:100000000C9463000C948B000C948B000C94900C5B
:100010000C94900C0C94900C0C948B000C948B0012
:100020000C948B000C948B000C948B000C948B0024
:100030000C948B000C948B000C948B000C948B0014
:100040000C94EE0B0C948B000C945E0C0C94380CFE
:100050000C948B000C948B000C948B000C948B00F4
:100060000C948B000C948B000000000024002700EF
:100070002A0000000008000201000003040700003D
:1000800000000000000000000000230026002900FE
:1000900000000000250028002B00040404040404D0
:1000A0000404020202020202030303030303010227
:1000B00004081020408001020408102001020408F6
:1000C0001020080D061511241FBECFEFD8E0DEBFAB
:1000D000CDBF11E0A0E0B1E0E6E6FAE202C0059093
:1000E0000D92AA32B107D9F722E0AAE2B1E001C02D
:1000F0001D92A933B207E1F710E0C2E6D0E004C0D8
:100100002197FE010E941015C136D107C9F70E9440
:10011000B30D0C9426150C940000833081F028F464
:10012000813099F08230A9F008958730A9F08830A5
:10013000C9F08430B1F4809180008F7D03C080913C
:1001400080008F7780938000089584B58F7784BD79
:10015000089584B58F7DFBCF8091B0008F77809319
:10016000B00008958091B0008F7DF9CFCF93DF93D9
:10017000282F30E0F901EE58FF4F8491F901E25544
:10018000FF4FD491F901E656FF4FC491CC23A1F063
:1001900081110E948D00EC2FF0E0EE0FFF1FEA5757
:1001A000FF4FA591B491EC91ED2381E090E009F42B
:1001B00080E0DF91CF91089580E090E0FACF1F9327
:1001C000CF93DF93282F30E0F901EE58FF4F849151
:1001D000F901E255FF4FD491F901E656FF4FC49162
:1001E000CC23A9F0162F81110E948D00EC2FF0E096
:1001F000EE0FFF1FE057FF4FA591B4918FB7F89412
:10020000EC91111108C0D095DE23DC938FBFDF91F4
:10021000CF911F910895DE2BF8CFCF93DF9390E01D
:10022000FC01E255FF4F249186569F4FFC018491BB
:100230008823C9F090E0880F991FFC01E859FF4F0F
:10024000A591B491FC01E057FF4FC591D491611184
:100250000DC09FB7F8948C91209582238C93888150
:10026000282328839FBFDF91CF910895623051F4F6
:100270009FB7F8943C91822F809583238C93E881DB
:100280002E2BEFCF8FB7F894EC912E2B2C938FBFA2
:10029000EACF3FB7F8948091750190917601A091D3
:1002A0007701B091780126B5A89B05C02F3F19F0C2
:1002B0000196A11DB11D3FBFBA2FA92F982F8827E6
:1002C000BC01CD01620F711D811D911D42E0660FC1
:1002D000771F881F991F4A95D1F708958F929F9293
:1002E000AF92BF92CF92DF92EF92FF924B015C01EF
:1002F0000E9449016B017C010E9449016C197D0932
:100300008E099F09683E734081059105A8F321E09D
:10031000821A9108A108B10888EEC80E83E0D81EA1
:10032000E11CF11C81149104A104B10429F7FF9090
:10033000EF90DF90CF90BF90AF909F908F900895F7
:100340002FB7F894609171017091720180917301DF
:10035000909174012FBF0895AF92BF92CF92DF9218
:10036000EF92FF920F931F93CF93DF936C017B016A
:100370008B01040F151FEB015E01AE18BF08C017FB
:10038000D10759F06991D601ED91FC910190F0816E
:10039000E02DC6010995892B79F7C501DF91CF9131
:1003A0001F910F91FF90EF90DF90CF90BF90AF9093
:1003B0000895FC01538D448D252F30E0842F90E06B
:1003C000821B930B541710F0CF9608950197089550
:1003D000FC01918D828D981761F0A28DAE0FBF2F19
:1003E000B11D5D968C91928D9F5F9F73928F90E06F
:1003F00008958FEF9FEF0895FC01918D828D9817DE
:1004000031F0828DE80FF11D858D90E008958FEF1A
:100410009FEF0895FC01918D228D892F90E0805CE3
:100420009F4F821B91098F73992708958DE791E063
:100430000E940A0221E0892B09F420E0822F08950E
:1004400080E090E0892B29F00E94160281110C9423
:1004500000000895FC01A48DA80FB92FB11DA35A67
:10046000BF4F2C91848D90E001968F739927848FD4
:10047000A689B7892C93A089B1898C9183708064F7
:100480008C93938D848D981306C00288F389E02D98
:1004900080818F7D80830895EF92FF920F931F9349
:1004A000CF93DF93EC0181E0888F9B8D8C8D981327
:1004B0001AC0E889F989808185FF15C09FB7F89433
:1004C000EE89FF896083E889F9898081837080647F
:1004D00080839FBF81E090E0DF91CF911F910F91CA
:1004E000FF90EF900895F62E0B8D10E00F5F1F4FD9
:1004F0000F731127E02E8C8D8E110CC00FB607FCE8
:10050000FACFE889F989808185FFF5CFCE010E9475
:100510002A02F1CFEB8DEC0FFD2FF11DE35AFF4FB7
:10052000F0829FB7F8940B8FEA89FB898081806203
:10053000CFCF682F8DE791E00C944C02CF93DF93DF
:10054000EC01888D8823B9F0AA89BB89E889F989EB
:100550008C9185FD03C0808186FD0DC00FB607FC20
:10056000F7CF8C9185FFF2CF808185FFEDCFCE0153
:100570000E942A02E9CFDF91CF91089520917B015B
:1005800030917C012817390771F49091790180919D
:100590007A01981741F0E0917901F0E0E65DFE4FB5
:1005A000808190E008958FEF9FEF08950895EF9276
:1005B000FF920F931F93CF93DF93DC015C96ED9036
:1005C000FC905D97E114F10479F481E090E01396DA
:1005D0009C938E93129790E080E0DF91CF911F91D2
:1005E0000F91FF90EF9008955196ED91FC915297E5
:1005F00050968C915097982F90950FB75E962C91AE
:100600005E97122F127021FD6095F89420811123BE
:1006100019F1282B2083E7012197F1F728E0462FD5
:1006200050E0308160FF1AC0382B3083E7012197FA
:10063000F1F7BA0175956795215089F7112381F07B
:100640008081892380830FBF5C968D919C91019757
:10065000F1F781E090E0C1CF2923DCCF3923E5CF4A
:100660009081892BEFCF20917B0130917C0128175D
:10067000390761F480917A012091790190E0805CE2
:100680009F4F821B91098F739927089590E080E016
:10069000089520917B0130917C0128173907B9F426
:1006A0009091790180917A01981789F0E091790110
:1006B000F0E0E65DFE4F80812091790130E02F5F10
:1006C0003F4F2F7333272093790190E008958FEFE8
:1006D0009FEF0895E0917B01F0917C01E817F90705
:1006E00069F4A389B4899C918589809589238C9329
:1006F00010927C0110927B0181E0089580E00895C2
:10070000109235021092340210923302109232028B
:10071000109231021092300282E490E090933702FE
:100720008093360290912602963108F046C02FE061
:1007300030E0309331022093300220E430E03093F7
:1007400033022093320227E230E0309335022093C7
:1007500034022091680084E0983048F031E09E3007
:1007600008F430E081E001C0880F3A95EAF7822B67
:10077000809368002DE630E0983050F02BE630E0B2
:100780009E3030F02CE630E0963110F030E020E082
:1007900030932E0220932D02292F30E09830C0F59F
:1007A00081E001C0880F9A95EAF780932F0280912B
:1007B0003602909137020197F1F7809134029091BF
:1007C0003502892B21F180917B0190917C0122E0FF
:1007D0008A319207E1F0009711F00E946A0380913C
:1007E00038028E7F8093380210927A01109279013C
:1007F0008AE192E090937C0180937B01E0912D024D
:10080000F0912E02808190912F02892B8083089590
:100810009E3040F42850310981E001C0880F2A95AC
:10082000EAF7C3CF2E503109F7CF90E080E008956A
:100830008F929F92AF92BF92CF92DF92EF92FF92F0
:100840000F931F93CF93DF93F82E192F062F6A0172
:100850000E94A0014B015C01CF2DD12F0C0F1D2F49
:10086000111DF12CE12CC017D107B9F00E94A00195
:10087000681979098A099B09C616D706E806F90698
:10088000D0F08DE791E00E940A02892B61F38DE799
:1008900091E00E94E8018993E6CF81E0DF91CF915A
:1008A0001F910F91FF90EF90DF90CF90BF90AF908E
:1008B0009F908F90089580E0F1CFCF93DF9300D089
:1008C000CDB7DEB78FEF89838A8342E050E0BE0167
:1008D0006F5F7F4F8DE791E00E94AC010F900F900A
:1008E000DF91CF910895CF93DF9300D0CDB7DEB7DE
:1008F0008AEA89838A8342E050E0BE016F5F7F4FBE
:100900008DE791E00E94AC010F900F90DF91CF91A5
:100910000895CF92DF92EF92FF920F931F93CF93A0
:10092000DF93C3E0D0E0CE010197F1F762E087E00A
:100930000E940D0161E086E00E94DF00CE01019778
:10094000F1F760E086E00E94DF002197F1F710E008
:1009500000E0F12CE12CC3E0D0E0CC24C394D12CF6
:1009600061E086E00E94DF00CE010197F1F787E0A9
:100970000E94B600892B49F0C601002E02C0880FE4
:10098000991F0A94E2F7E82AF92A60E086E00E94BB
:10099000DF00CE010197F1F70F5F1F4F0E301105F9
:1009A000F9F661E086E00E94DF00CE010197F1F7E1
:1009B00060E086E00E94DF00CE010197F1F761E080
:1009C00087E00E940D0160E087E00E94DF00219730
:1009D000F1F7C701DF91CF911F910F91FF90EF9039
:1009E000DF90CF900895EF92FF920F931F93CF93D4
:1009F000DF937C0161E087E00E940D01C3E0D0E05D
:100A0000CE010197F1F760E087E00E94DF00CE01A0
:100A10000197F1F761E086E00E94DF00CE010197C7
:100A2000F1F760E086E00E94DF002197F1F710E027
:100A300000E0C3E0D0E0B701002E02C076956795D4
:100A40000A94E2F7617087E00E94DF00CE0101970F
:100A5000F1F761E086E00E94DF00CE010197F1F737
:100A600060E086E00E94DF00CE010197F1F70F5FA2
:100A70001F4F0E301105F9F660E087E00E94DF009D
:100A8000CE010197F1F761E086E00E94DF00CE0120
:100A90000197F1F760E086E00E94DF00CE01019748
:100AA000F1F760E087E00E94DF002197F1F7DF9126
:100AB000CF911F910F91FF90EF900895EF92FF92C9
:100AC0000F931F93CF93DF93E82E61E087E00E949E
:100AD0000D0110E000E0F12CC3E0D0E0B701002EE2
:100AE00002C0759567950A94E2F7617087E00E94ED
:100AF000DF00CE010197F1F761E086E00E94DF00A0
:100B0000CE010197F1F760E086E00E94DF00CE01A0
:100B10000197F1F70F5F1F4F06301105F9F660E0FE
:100B200087E00E94DF002197F1F7DF91CF911F91BD
:100B30000F91FF90EF90089580E00E945E058FEF87
:100B40009FE30C94F30486E00E945E0583E090E04E
:100B50000197F1F70895CF92DF92EF92FF920F93F2
:100B60001F93CF93DF9362E087E00E940D01C8E0FE
:100B70000BE010E061E086E00E94DF00C801019711
:100B8000F1F760E086E00E94DF00C8010197F1F70D
:100B9000C15081F78BE190E00197F1F7D0E0C0E020
:100BA00010E08BE0E82EF12CCC24C394D12C61E032
:100BB00086E00E94DF00C7010197F1F760E086E060
:100BC0000E94DF00C7010197F1F787E00E94B6009D
:100BD000892B39F0C6010C2E01C0880F0A94EAF760
:100BE000182B2196C830D10511F7CBE0D0E0CE010B
:100BF0000197F1F761E087E00E940D0160E087E076
:100C00000E94DF002197F1F7812FDF91CF911F9193
:100C10000F91FF90EF90DF90CF900895CF93DF93E7
:100C2000682F87E00E94DF00CBE0D0E0CE01019783
:100C3000F1F761E086E00E94DF00CE010197F1F755
:100C400060E086E00E94DF002197F1F7DF91CF910D
:100C500008950F931F93CF93DF938C0161E087E09A
:100C60000E940D01D0E0C0E0C8010C2E02C0969594
:100C700087950A94E2F781700E940E062196C03192
:100C8000D10591F760E087E00E94DF008BE090E003
:100C90000197F1F7DF91CF911F910F9108950F9375
:100CA0001F93CF93DF93082F61E087E00E940D012F
:100CB000D0E0C0E010E0C8010C2E02C095958795E9
:100CC0000A94E2F781700E940E062196C430D10585
:100CD00091F760E087E00E94DF008BE090E00197F1
:100CE000F1F7DF91CF911F910F910895CF93DF938B
:100CF000EC0180E00E944F06CE01DF91CF910C9471
:100D000029060F931F93CF93DF93182F80916D01C6
:100D1000C62FD0E08230A1F583E00E945E05CE01AF
:100D20000E94F30480916C01813001F588E10E94FA
:100D30005E0567E070E080E090E00E946E0187E170
:100D40000E945E0583E090E00197F1F70E94A30501
:100D500080916A0190916B01019690936B01809351
:100D60006A01DF91CF911F910F91089588E00E9451
:100D70005E0567E070E080E090E00E946E01E6CFE3
:100D800086EA9EE90E94760690E080E00E94760660
:100D900090E080E00E94760686EA9CE90E94760652
:100DA00090E080E00E94760690E080E00E94760667
:100DB00080E09EE00E9476068AEA9EE60E94760621
:100DC00090E080E00E94760690E080E00E94760647
:100DD000812F90E09E600E94760689EA9EE60E943E
:100DE000760690E080E00E94760690E080E00E9427
:100DF0007606CE019E600E94760688EA9EE60E94F4
:100E0000760690E080E00E94760690E080E00E9406
:100E1000760686EA94E80E94760690E080E00E94DA
:100E2000760690E080E00E94760685E59EE00E94CE
:100E3000760687EA9EE60E94760690E080E00E94B1
:100E4000760690E080E00E9476068AEA9EE00E94A4
:100E5000760687EA9EE60E94760690E080E00E9491
:100E6000760690E080E00E94760686EA92E80E948C
:100E7000760661E087E00E940D0160E087E00E9455
:100E8000DF008BE090E00197F1F7C3E00BE010E0AA
:100E900061E086E00E94DF00C8010197F1F760E0A1
:100EA00086E00E94DF00C8010197F1F7C15081F789
:100EB00061E086E00E94DF008BE190E00197F1F7AE
:100EC00060E086E00E94DF006AE070E080E090E091
:100ED0000E946E0110E1CBE0D0E061E086E00E946C
:100EE000DF00CE010197F1F760E086E00E94DF00AD
:100EF000CE010197F1F7115081F760E087E00E9481
:100F0000DF002197F1F786EA94E90E94760690E0E7
:100F100080E00E94760690E080E0DF91CF911F9103
:100F20000F910C947606CF92DF92EF92FF926B01B5
:100F30009E600E94760688EF9EE60E94760690E00C
:100F400080E00E94760690E080E00E9476068D2D7B
:100F500090E09E600E94760687EF9EE60E947606ED
:100F600090E080E00E94760690E080E00E947606A5
:100F70008C2D90E09E600E94760686EF9EE60E9491
:100F8000760690E080E00E94760690E080E0FF9098
:100F9000EF90DF90CF900C94760660E086E00E94A0
:100FA0000D0160E087E00E940D0160E085E00E9495
:100FB0000D0161E084E00E940D0161E084E00C9489
:100FC000DF00CF93DF93C0916D0160E086E0C33016
:100FD000C1F40E94DF0060E087E00E94DF008FE044
:100FE00090E00197F1F760E084E00E94DF0062E0AA
:100FF00070E080E090E00E946E01DF91CF910C9450
:10100000CD070E94DF0060E087E00E94DF00C23071
:1010100089F0C5E0D0E0CC0FDD1FCC0FDD1F259798
:10102000CE010197F1F760E085E00E94DF00219793
:10103000F1F7D9CFC2E0D0E0EECF61E086E00E94C8
:101040000D0161E087E00E940D0161E085E00E94F2
:101050000D0161E084E00E940D0160E086E00E94E5
:10106000DF0060E087E00E94DF0060E085E00E9432
:10107000DF0060E084E00C94DF000E941D0861E066
:1010800085E00E94DF0083E290E00197F1F761E0E4
:1010900084E00E94DF0062E070E080E090E00E9467
:1010A0006E0110926B0110926A01089560E086E073
:1010B0000E94DF0060E087E00E94DF0060E085E0E2
:1010C0000E94DF0062E070E080E090E00E946E012C
:1010D00060E084E00E94DF006AE070E080E090E081
:1010E0000E946E010E941D086AE070E080E090E0BE
:1010F0000E946E0161E085E00E94DF0065E070E023
:1011000080E090E00E946E0161E084E00E94DF00D8
:1011100064E670E080E090E00E946E0110926B0146
:1011200010926A0182E080936D0108950F931F93DE
:10113000CF93DF938C0180916A0190916B01081726
:10114000190710F40E945608C0916A01D0916B01F2
:10115000C017D10740F40E94A3052196D0936B01DC
:10116000C0936A01F1CFDF91CF911F910F91089544
:101170008F929F92AF92BF92EF92FF920F931F9325
:10118000CF93DF934B015C01C42FF22EE32E8091AD
:101190006D01823039F5142F1695CB010E94960807
:1011A000CF2DDE2D00E09BE1E92EF12C101709F484
:1011B00048C084E00E945E050E94890488839F7372
:1011C00099830E94A30580916A0190916B01019619
:1011D00090936B0180936A01C7010197F1F70F5F4C
:1011E0002296E4CF8FEF840F803458F561E087E0DA
:1011F0000E940D0160E087E00E94DF0060E086E071
:101200000E94DF0062E070E080E090E00E946E01EA
:10121000C501B4010E949307DF2D0F2D1E2D8BE316
:10122000E82EF12C89E00E944F060E94AB05F801E0
:1012300081938F01C7010197F1F78E2F8D1B8C17BA
:1012400088F3DF91CF911F910F91FF90EF90BF90A6
:10125000AF909F908F900895FF920F931F93CF931D
:10126000DF93CDB7DEB7C354D1090FB6F894DEBF14
:101270000FBECDBFF62E2AEA29836A83062F10E01F
:10128000A801BC01CE0103960E941615F394F394B5
:10129000F8013296BE016F5F7F4FDB0180E09A2F2D
:1012A000961B9F1518F49D918927F9CFE60FF71F1C
:1012B0008083A8014D5F5F4F8DE791E00E94AC01F4
:1012C000CD5BDF4F0FB6F894DEBF0FBECDBFDF9111
:1012D000CF911F910F91FF9008958F929F92AF929F
:1012E000BF92CF92DF92EF92FF920F931F93CF9313
:1012F000DF93CDB7DEB7C054D1090FB6F894DEBF87
:101300000FBECDBF4B015C016A01122FF0906D0141
:1013100023E0F212B3C040E450E06FEF70E0CE0182
:1013200001960E941F15113408F010E4412F50E07F
:10133000B601CE0101960E94161586EA9EE80E942B
:10134000760686EA9CE90E94760686EA94E80E9480
:10135000760690E080E00E94760690E080E00E94B1
:101360007606C501B4010E9493078E010F5F1F4FDF
:1013700060E2E62EEA94EE2059F08DE00E944F06DE
:10138000F801918180810E9429060E5F1F4FF2CFE4
:101390008FE00E944F0621968EAD9FAD21970E944F
:1013A000290661E087E00E940D0160E087E00E946D
:1013B000DF008BE090E00197F1F70BE010E061E0D7
:1013C00086E00E94DF00C8010197F1F760E086E047
:1013D0000E94DF00C8010197F1F7FA94F110EFCFF6
:1013E00061E086E00E94DF0061E070E080E090E074
:1013F0000E946E0160E086E00E94DF008BE193E0D6
:101400000197F1F750E1F52E0BE010E061E086E086
:101410000E94DF00C8010197F1F760E086E00E94BA
:10142000DF00C8010197F1F7FA94F110EFCF60E007
:1014300087E00E94DF00C8010197F1F786EA94E98E
:101440000E94760690E080E00E94760690E080E0C0
:101450000E947606C05CDF4F0FB6F894DEBF0FBE69
:10146000CDBFDF91CF911F910F91FF90EF90DF9053
:10147000CF90BF90AF909F908F900895F2E0FF12B1
:1014800062C07B01FA01018110E0102F00270027C4
:101490001F738081082B80916A0190916B016817FE
:1014A000790710F40E945608D0906C01F1E0DF1229
:1014B00018C080916A0190916B01892B91F4EF28FB
:1014C00081F40E94E10762E370E080E090E00E9416
:1014D0006E010E943D0862E370E080E090E00E94AF
:1014E0006E01C4010E94960882E00E945E05C80158
:1014F0000E94F30421E0D2121CC088E10E945E0524
:1015000065E070E080E090E00E946E0187E10E945B
:101510005E0583E090E00197F1F70E94A3058091BA
:101520006A0190916B01019690936B0180936A011F
:1015300091CF88E00E945E0565E070E080E090E079
:101540000E946E01EACF40E250E06FEF70E0CE0102
:1015500001960E941F15012F113208F000E2402F62
:1015600050E0B601CE0101960E9416150695C02ED8
:10157000D12C193008F072C081E080936D0186EAA9
:101580009EE80E94760690E080E00E94760690E059
:1015900080E00E94760686EA9CE80E94760690E04B
:1015A00080E00E94760690E080E00E94760686EA5F
:1015B00094E80E94760690E080E00E94760690E033
:1015C00080E00E94760666E070E08CE390E00E9486
:1015D00093078CE00E944F0690E080E00E9429066D
:1015E00086EA9EE80E94760690E080E00E947606F9
:1015F00090E080E00E94760686EA9CE90E947606EA
:1016000090E080E00E94760690E080E00E947606FE
:10161000C501B4010E949307E12C31E0C31AD1083F
:101620000E2D10E00C151D050CF048C08DE00E9439
:101630004F06000F111FE2E0F0E0EC0FFD1FE00F7E
:10164000F11F9081E1E0F0E0EC0FFD1F0E0F1F1F76
:10165000F80180810E942906E394E2CF10926D0187
:1016600086EA9EE80E94760686EA9CE90E94760653
:10167000C501B4010E949307E12C81E0C81AD1088A
:101680000E2D10E00C151D050CF06AC08DE00E94B7
:101690004F06000F111FE2E0F0E0EC0FFD1FE00F1E
:1016A000F11F9081E1E0F0E0EC0FFD1F0E0F1F1F16
:1016B000F80180810E942906E394E2CF8FE00E9426
:1016C0004F06F601EE0FFF1FA2E0B0E0AC0FBD1F0A
:1016D000AE0FBF1F9C9121E030E02C0F3D1FE20FA9
:1016E000F31F80810E94290661E087E00E940D01BE
:1016F00080E00E940E0680E00E940E0680E00E94BC
:101700000E0660E087E00E94DF008BE090E001972A
:10171000F1F761E086E00E94DF0065E070E080E0C4
:1017200090E00E946E0160E086E00E94DF0061E0D0
:1017300070E080E090E00E946E0190E080E00E9406
:10174000290686EA94E90E94760690E080E00E94ED
:10175000760690E080E00E947606F0926D017ACEE7
:101760008FE00E944F06F601EE0FFF1FA2E0B0E0EF
:10177000AC0FBD1FAE0FBF1F9C9121E030E02C0FBE
:101780003D1FE20FF31F80810E94290680E00E9426
:101790000E0680E00E940E0680E00E940E0660E0C9
:1017A00087E00E94DF008BE090E00197F1F761E0B5
:1017B00086E00E94DF0065E070E080E090E00E943B
:1017C0006E0160E086E00E94DF008FE090E001970C
:1017D000F1F790E080E00E942906BFCF1F920F92A0
:1017E0000FB60F9211242F933F938F939F93AF9334
:1017F000BF938091710190917201A0917301B0919A
:1018000074013091700123E0230F2D3758F50196B4
:10181000A11DB11D209370018093710190937201FD
:10182000A0937301B093740180917501909176013A
:10183000A0917701B09178010196A11DB11D80930F
:10184000750190937601A0937701B0937801BF91D1
:10185000AF919F918F913F912F910F900FBE0F905D
:101860001F90189526E8230F0296A11DB11DD2CF17
:101870001F920F920FB60F9211242F933F934F9305
:101880005F936F937F938F939F93AF93BF93EF93E8
:10189000FF938DE791E00E942A02FF91EF91BF91A3
:1018A000AF919F918F917F916F915F914F913F91F8
:1018B0002F910F900FBE0F901F9018951F920F92AF
:1018C0000FB60F9211242F938F939F93EF93FF9353
:1018D000E0918D01F0918E018081E0919301F09172
:1018E000940182FD1BC09081809196018F5F8F7360
:1018F00020919701821741F0E0919601F0E0E358C2
:10190000FE4F958F80939601FF91EF919F918F915C
:101910002F910F900FBE0F901F9018958081F4CFDC
:101920001F920F920FB60F9211242F933F934F9354
:101930005F936F937F938F939F93AF93BF93EF9337
:10194000FF93E0917B01F0917C01309749F0A685EF
:10195000B7858585968D91FF14C09C918923A1F44C
:10196000FF91EF91BF91AF919F918F917F916F9177
:101970005F914F913F912F910F900FBE0F901F904D
:1019800018959C91892361F7A389B4899C918589D5
:10199000809589238C93868997890197F1F7608DCB
:1019A000718DA685B785558538E020E0CB0101977C
:1019B000F1F7822F90E095958795282F4C9145233C
:1019C00009F02068315091F7868D81FD2095809136
:1019D0007A0190E001968F73992730917901381739
:1019E00099F0A0917A01B0E0A65DBE4F2C93809350
:1019F0007A01828D938D0197F1F7A389B4898C9137
:101A00009589892B8C93ACCF868D8160868FF1CFA1
:101A10001092800110927F0188EE93E0A0E0B0E088
:101A20008093810190938201A0938301B0938401FC
:101A300024E031E030937E0120937D0125EC30E0FD
:101A400030938A012093890124EC30E030938C019B
:101A500020938B0120EC30E030938E0120938D0198
:101A600021EC30E03093900120938F0122EC30E0A4
:101A7000309392012093910126EC30E03093940151
:101A80002093930110929601109297011092980161
:101A90001092990110921D0210921C0280931E0256
:101AA00090931F02A0932002B093210286E191E05F
:101AB00090931B0280931A0210923102109230020E
:101AC00010923302109232021092350210923402B8
:101AD0001092370210923602609138026E7F6D7F4D
:101AE000609338026695617081E0682783E00E9408
:101AF000DF0061E083E00E940D01E1EBF0E0E491A2
:101B0000E0932A02EDE9F0E0E491F0E0EE0FFF1F30
:101B1000E057FF4F8591949190932C0280932B0274
:101B200060E082E00E940D018091380281FD04C0D6
:101B300061E082E00E94DF0082E080932602E0EB19
:101B4000F0E0E491E0932702ECE9F0E0E491F0E0CA
:101B5000EE0FFF1FEA57FF4F859194919093290252
:101B6000809328020895CF93DF93CDB7DEB7CB568D
:101B7000D1090FB6F894DEBF0FBECDBF789484B5FF
:101B8000826084BD84B5816084BD85B5826085BD79
:101B900085B5816085BD80916E00816080936E0007
:101BA00010928100809181008260809381008091F9
:101BB00081008160809381008091800081608093AA
:101BC00080008091B10084608093B1008091B0006A
:101BD00081608093B00080917A00846080937A0065
:101BE00080917A00826080937A0080917A0081608F
:101BF00080937A0080917A00806880937A001092B6
:101C0000C100E0918D01F0918E0182E08083E0912E
:101C10008D01F0918E011082E0918901F0918A018D
:101C20001082E0918B01F0918C0180E18083109211
:101C30009501E0919101F091920186E08083E0911D
:101C40008F01F0919001808180618083E0918F010C
:101C5000F0919001808188608083E0918F01F09104
:101C60009001808180688083E0918F01F0919001E4
:101C700080818F7D80830E9480030E94CD07109217
:101C80006E0164E670E080E090E00E946E0181E009
:101C900080936F018E010F5F1F4F21E430E02C0F06
:101CA0003D1F2C5F3F4FAC963FAF2EAFAC97CE01A0
:101CB0004196A9969FAF8EAFA997FBE32F2E312CAB
:101CC000612CA0E27A2EBBE0EB2EF12C80916F010B
:101CD000882309F448C080916E01811157C08DE7B7
:101CE00091E00E940A02892B91F18DE791E00E9418
:101CF000E801813E09F044C00E94A0014B015C0153
:101D00000E94A001681979098A099B09643171054B
:101D10008105910558F48AE192E00E943303892BF2
:101D200079F38AE192E00E944903E6CF8AE192E0EA
:101D30000E946A030E94CD0781E080936E018AEAC7
:101D400090E00E9499028AEA90E00E9499028AE15A
:101D500092E00E943303892B31F08AE192E00E94E5
:101D600049030E94990280E090E0892B09F4AECFEC
:101D70000E941602882309F4A0CF0E94000097CF8A
:101D8000682F8AE192E00E94D702E1CF8DE791E0CF
:101D90000E940A02892B39F38DE791E00E94FC0131
:101DA000803E89F48DE791E00E94E8010E94CD0712
:101DB0000E94800310926E018AEA90E00E949902CC
:101DC0008AEA90E0CECF44EF51E065E0CE018F5932
:101DD0009F4F0E941804811103C00E945D04C3CF6D
:101DE000A296DFACA297A3968FADA397A4968FACD3
:101DF000A497912CB12CA12CBA2CA92C982C882416
:101E0000A82AA5968FADA597882AA6965FACA69717
:101E10008AEF8D0D843028F085EF8D0D833008F02A
:101E200017C248EC50E061E0CE018A599F4F0E94F2
:101E30001804882391F2A2968FADA297A3969FAD26
:101E4000A3978927A4969FADA4978927A5969FADB0
:101E5000A5978927A6969FADA6978927A7969FAD98
:101E6000A7979813BACF80E4F80111928A95E9F701
:101E7000FDE0DF120DC085E0E4E2F1E0D801019061
:101E80000D928A95E1F768E0C8010E942C096BCF9A
:101E900026E0D21208C09801452DC501B4010E9468
:101EA000B808652DF1CF37E0D31299C080916D014C
:101EB000823011F50E949C0570926B0160926A015C
:101EC00086E090E20E94960884E00E945E050E94EF
:101ED000890489839A838B839C83FE0135968EEED9
:101EE0008193A9962EAD3FADA997E217F307C1F7ED
:101EF0000E94560860E1C8CF6EEF7FEF8FE390E05D
:101F00000E94930789E00E944F060E94AB058983D7
:101F100089E00E944F060E94AB058A836EEF7FEF37
:101F20008FE390E00E94930789E00E944F060E9491
:101F3000AB058B8389E00E944F060E94AB058C8322
:101F400060E070E0CB010E94930789E00E944F0699
:101F50000E94AB058D8389E00E944F060E94AB056D
:101F60008E836CEF7FEF8FE390E00E94930789E010
:101F70000E944F060E94AB058F8389E00E944F06A6
:101F80000E94AB05888787E00E94B60078E0D72ED4
:101F9000892B09F4D12C86E00E94B600892BD9F058
:101FA00084E0D82A85E00E94B600892BB1F082E057
:101FB000D82A84E00E94B60021E0892B09F420E0B1
:101FC000D22AD9868EEE8A878B878C878D878E87DB
:101FD0008F87888B8FCF80E0E4CF80E0E9CF39E036
:101FE000D3127FC08FEF850D803408F05ACF68017F
:101FF000412C80916D01823001F585E00E945E05E3
:102000000E948904AA968FAFAA970E94A305809187
:102010006A0190916B01019690936B0180936A0124
:10202000AA968FADAA97F60181936F01C10101971E
:10203000F1F743945410DDCF34CF86EA9EE90E9435
:10204000760690E080E00E94760690E080E00E94B4
:10205000760686EA9CE90E94760690E080E00E947F
:10206000760690E080E00E947606842D880D90E050
:102070009E600E94760689EA9EE60E94760690E0BF
:1020800080E00E94760690E080E00E94760686EA74
:1020900090E80E94760690E080E00E94760690E04C
:1020A00080E00E94760688EA90E50E94760690E03D
:1020B00080E00E94760690E080E00E94760685EF40
:1020C0009EE60E94760690E080E00E94760690E010
:1020D00080E00E94760682E00E944F060E94AB05D7
:1020E000A2CF80916D01FCE0DF1263C08230A9F5C0
:1020F0000E949C0570926B0160926A01C4010E946B
:102100009608452C46946801B12CA12C242D215011
:10211000330B4901A414F0F484E00E945E050E9490
:102120008904F60180839F739183A814B9045CF439
:102130000E94A30580916A0190916B010196909392
:102140006B0180936A01FFEFAF1ABF0A22E0C20E53
:10215000D11CE0CF0E945608A4CE8FEF850D8034AD
:1021600008F09FCE61E087E00E940D0160E087E00B
:102170000E94DF0060E086E00E94DF0062E070E025
:1021800080E090E00E946E01C501B4010E949307B7
:10219000680189E00E944F060E94AB05F601819319
:1021A0006F01C1010197F1F78E2F801B851588F310
:1021B00078CEFBE0DF121CC0D12CC12C823061F440
:1021C0008BE00E945E056CE070E080E090E00E9491
:1021D0006E010E947304C7CD6FEF8C2D0E948106A3
:1021E0002FEFC21AD20AC11431E0D306A9F7F1CFFA
:1021F00068E0D62E813011F050E2D52E4CE150E04F
:102200006FEF70E0AC968EAD9FADAC970E941F153E
:102210008AEA22968FAF229785E523968FAF239780
:1022200081E124968FAF249782E225968FAF259780
:102230002D2DAE014F5B5F4FC501B4010E946D09AA
:10224000980144E0C501B4010E94B80864E01CCEC6
:10225000552069F080E4851508F4BFCD44EF51E0C6
:10226000652DC8010E941804882309F4B6CD48ECF6
:1022700050E061E0CE018F5B9F4F0E9418048823DD
:1022800009F4ABCDA2968FADA297A3969FADA3976D
:102290008927A4969FADA4978927A5969FADA5975A
:1022A0008927A6969FADA6978927552051F0F8015A
:1022B00090E02E2F201B251518F421919227F9CF9D
:1022C000892722969FAD2297981387CD93E0D91640
:1022D00009F48DC09D1548F0E1E0DE16A9F0F2E0AA
:1022E000DF127BCD0E94E10774CF25E0D21609F4FE
:1022F00093C2D21608F489C23AE0D3126ECD698136
:10230000882D0E94810665CF80926D01892D817094
:1023100080936C0183E0881267C00E941D0860E012
:1023200085E00E94DF0060E086E00E94DF0060E060
:1023300087E00E94DF0061E084E00E94DF008BE81C
:1023400091E00197F1F760E084E00E94DF0062E035
:1023500070E080E090E00E946E0161E087E00E9402
:102360000D014FE1C42ED12C80E598E4A3E4BDE437
:102370000C2C04C0B695A795979587950A94D2F72B
:10238000682F617087E00E94DF00C7010197F1F7B5
:1023900061E086E00E94DF00C7010197F1F760E08D
:1023A00086E00E94DF00C7010197F1F791E0C91AAA
:1023B000D108D0F660E087E00E94DF008BE891E072
:1023C0000197F1F761E084E00E94DF0061E070E0D6
:1023D00080E090E00E946E0110926B0110926A0101
:1023E00083E080936D01F5CE0E943D08F2CE882DEA
:1023F000823009F0D4C080926D0180916D018330EC
:1024000009F0DDC08CE39EE00E94760688EF9EE630
:102410000E94760690E080E00E94760690E080E0E0
:102420000E94760680E09EE00E94760687EF9EE698
:102430000E94760690E080E00E94760690E080E0C0
:102440000E94760685E09EE00E94760686EF9EE674
:102450000E94760690E080E00E94760690E080E0A0
:102460000E9476068CE00E944F068FE09FE00E945B
:1024700029068CE39EE00E94760688EF9EE60E9485
:10248000760690E080E00E94760690E080E00E9470
:10249000760680E09EE00E94760687EF9EE60E9428
:1024A000760690E080E00E94760690E080E00E9450
:1024B000760684E09EE00E94760686EF9EE60E9405
:1024C000760690E080E00E94760690E080E00E9430
:1024D00076068CE00E944F068FE89FE80E9429064E
:1024E00061E087E00E940D0160E087E00E94DF006C
:1024F00061E086E00E94DF00C7010197F1F760E02C
:1025000086E00E94DF00C7010197F1F761E086E0F5
:102510000E94DF00C7010197F1F760E086E00E94AA
:10252000DF00C7010197F1F761E086E00E94DF005C
:10253000C7010197F1F760E086E00E94DF00C70164
:102540000197F1F761E086E00E94DF00C701019783
:10255000F1F760E086E00E94DF0064E170E080E077
:1025600090E00E946E0130E1D32E61E086E00E948F
:10257000DF00C7010197F1F760E086E00E94DF000D
:10258000C7010197F1F7DA94D110EFCF60E087E04F
:102590000E94DF008FE090E00197F1F71ACE8330C0
:1025A00019F4D0926D0129CF81E0F9E08F169104E2
:1025B000A104B10408F080E080936D011ECF823049
:1025C00009F071C080916C0181111FC00E949C05AF
:1025D00070926B0160926A0189E00E945E056CE076
:1025E00070E080E090E00E946E018BE00E945E054A
:1025F0006CE070E080E090E00E946E016AE070E0C4
:1026000080E090E00E946E01B0C10E9456080E94D6
:102610009C0570926B0160926A0127E0D22E0E94A5
:10262000A30580916A0190916B01019690936B01D3
:1026300080936A01DA94D110F2CF84E00E945E05A3
:102640000E9489046C010E945608D5FC0EC00E94AD
:102650009C0570926B0160926A018FE10E945E0599
:102660006CE070E080E090E0CDCF0E949C0570921D
:102670006B0160926A0197E0D92E0E94A3058091B8
:102680006A0190916B01019690936B0180936A01AE
:10269000DA94D110F2CF89E00E945E058BE00E94AF
:1026A0005E0588E0DBCF8130F9F464E070E08CE314
:1026B00090E00E9493078CE00E944F0680E890E033
:1026C0000E94290680E00E944F0660E087E00E9499
:1026D000DF0068E270E080E090E00E946E0190E030
:1026E00080E00E94290656CF8CE39EE00E94760689
:1026F00088EF9EE60E94760690E080E00E947606D3
:1027000090E080E00E94760680E09EE00E947606DF
:1027100087EF9EE60E94760690E080E00E947606B3
:1027200090E080E00E94760685E09EE00E947606BA
:1027300086EF9EE60E94760690E080E00E94760694
:1027400090E080E00E9476068CE00E944F068FE3C6
:102750009FE30E9429068CE39EE00E94760688EFA4
:102760009EE60E94760690E080E00E94760690E069
:1027700080E00E94760680E09EE00E94760687EF69
:102780009EE60E94760690E080E00E94760690E049
:1027900080E00E94760684E09EE00E94760686EF46
:1027A0009EE60E94760690E080E00E94760690E029
:1027B00080E00E9476068CE00E944F068FE89FE83A
:1027C0000E94290690E080E00E94760662E070E0B8
:1027D00080E090E00E946E0190E080E00E9476062A
:1027E00062E070E080E090E00E946E0160E087E0CF
:1027F0000E94DF006AE070E080E090E00E946E01DD
:1028000061E087E00E94DF00E4CC252DA801C5012E
:10281000B4010E946D09DDCC50906D014980C42C3B
:10282000D12C23E052127AC086EA9EE80E947606F6
:1028300086EA9CE80E94760686EA94E80E9476067C
:1028400090E080E00E94760690E080E00E947606AC
:10285000C501B4010E9493078FE00E944F0680E0FB
:10286000942D80FEC6010E94290661E087E00E9447
:102870000D0160E087E00E94DF00C7010197F1F7DA
:1028800061E086E00E94DF00C7010197F1F760E098
:1028900086E00E94DF00C7010197F1F75A945110BA
:1028A000EFCF61E086E00E94DF0065E070E080E04D
:1028B00090E00E946E0160E086E00E94DF008BE104
:1028C00093E00197F1F780E1D82E61E086E00E9465
:1028D000DF00C7010197F1F760E086E00E94DF00AA
:1028E000C7010197F1F7DA94D110EFCF60E087E0EC
:1028F0000E94DF00C7010197F1F786EA94E90E9480
:10290000760686EA9CE90E94760690E080E00E94C6
:10291000760690E080E00E9476065BCC32E05312AF
:102920002FC00E949C0570926B0160926A01C401E5
:102930000E94960882E00E945E05C6019F630E9485
:10294000F30480916C01813099F488E10E945E0566
:1029500065E070E080E090E00E946E0187E10E94F7
:102960005E0583E090E00197F1F70E94560831CCB4
:1029700088E00E945E0565E070E080E090E042CE75
:1029800086EA9EE80E94760686EA9CE80E94760621
:10299000C501B4010E9493078FE00E944F0680E0BA
:1029A000942D80FEC6010E94290660E087E00E9407
:1029B000DF0061E086E00E94DF0060E086E00E94C8
:1029C000DF0061E086E00E94DF0060E086E00E94B8
:1029D000DF0061E086E00E94DF0060E086E00E94A8
:1029E000DF0061E086E00E94DF008BE19EE401975A
:1029F000F1F760E086E00E94DF008BE193E0019751
:102A0000F1F790E080E00E942906E3CB86E191E0B7
:102A100090931B0280931A028AE192E00C946A035D
:102A2000EE0FFF1F0590F491E02D0994FB01DC01EE
:102A300002C001900D9241505040D8F70895DC013A
:102A400001C06D9341505040E0F7089510E0C2E698
:102A5000D0E004C0FE010E9410152196C336D107B4
:062A6000C9F7F894FFCF56
:102A6600000000004C02AC01D9019E020A02E801F6
:102A7600FC0100000000D702AC011504D6023303A6
:0A2A86004903BE02312E302E30004D
:00000001FF
